{
  "_format": "hh3-artifact-1",
  "contractName": "Bank",
  "sourceName": "contracts/Bank.sol",
  "abi": [
    {
      "inputs": [
        {
          "internalType": "address",
          "name": "",
          "type": "address"
        }
      ],
      "name": "balances",
      "outputs": [
        {
          "internalType": "uint256",
          "name": "",
          "type": "uint256"
        }
      ],
      "stateMutability": "view",
      "type": "function"
    },
    {
      "inputs": [],
      "name": "deposit",
      "outputs": [],
      "stateMutability": "payable",
      "type": "function"
    },
    {
      "inputs": [],
      "name": "getBalance",
      "outputs": [
        {
          "internalType": "uint256",
          "name": "",
          "type": "uint256"
        }
      ],
      "stateMutability": "view",
      "type": "function"
    },
    {
      "inputs": [
        {
          "internalType": "uint256",
          "name": "amount",
          "type": "uint256"
        }
      ],
      "name": "withdraw",
      "outputs": [],
      "stateMutability": "nonpayable",
      "type": "function"
    }
  ],
  "bytecode": "0x6080604052348015600e575f5ffd5b5061024b8061001c5f395ff3fe60806040526004361061003e575f3560e01c806312065fe01461004257806327e235e3146100705780632e1a7d4d1461009b578063d0e30db0146100bc575b5f5ffd5b34801561004d575f5ffd5b50335f908152602081905260409020545b60405190815260200160405180910390f35b34801561007b575f5ffd5b5061005e61008a366004610191565b5f6020819052908152604090205481565b3480156100a6575f5ffd5b506100ba6100b53660046101be565b6100c4565b005b6100ba61016c565b335f9081526020819052604090205481111561011b5760405162461bcd60e51b81526020600482015260126024820152714e6f7420656e6f7567682062616c616e636560701b604482015260640160405180910390fd5b335f90815260208190526040812080548392906101399084906101e9565b9091555050604051339082156108fc029083905f818181858888f19350505050158015610168573d5f5f3e3d5ffd5b5050565b335f908152602081905260408120805434929061018a908490610202565b9091555050565b5f602082840312156101a1575f5ffd5b81356001600160a01b03811681146101b7575f5ffd5b9392505050565b5f602082840312156101ce575f5ffd5b5035919050565b634e487b7160e01b5f52601160045260245ffd5b818103818111156101fc576101fc6101d5565b92915050565b808201808211156101fc576101fc6101d556fea26469706673582212201b5054f340d3035ed96e7f4fa72b59276fd140c7460cf57156e812278c99918264736f6c634300081c0033",
  "linkReferences": {},
  "deployedLinkReferences": {},
  "immutableReferences": {},
  "inputSourceName": "project/contracts/Bank.sol",
  "buildInfoId": "solc-0_8_28-b1d133174574f56cfc5037f8e3fb1f9c17967d69"
}